S01200004C43445F4152414249432E737265633E
S11300000C942A000C9447000C9447000C9447006D
S11300100C9447000C9447000C9447000C94470040
S11300200C9447000C9447000C9447000C94470030
S11300300C9447000C9447000C9447000C94470020
S11300400C9447000C9447000C9447000C94470010
S11300500C94470011241FBECFE5D8E0DEBFCDBF0E
S113006010E0A0E6B0E0E6EEF8E002C005900D92E4
S1130070AE36B107D9F710E0AEE6B0E001C01D928C
S1130080AE36B107E1F70E94C8030C9471040C94D6
S11300900000823451F1833420F4813409F07BC0B0
S11300A007C0833409F43EC0843409F074C057C0D7
S11300B0413069F42AB381E090E0AC0102C0440FFE
S11300C0551F6A95E2F7BA01622B6ABB08952AB3F9
S11300D081E090E0AC0102C0440F551F6A95E2F73D
S11300E0BA01609562236ABB0895413069F427B36D
S11300F081E090E0AC0102C0440F551F6A95E2F71D
S1130100BA01622B67BB089527B381E090E0AC018C
S113011002C0440F551F6A95E2F7BA016095622345
S113012067BB0895413069F424B381E090E0AC01E9
S113013002C0440F551F6A95E2F7BA01622B64BBF3
S1130140089524B381E090E0AC0102C0440F551F30
S11301506A95E2F7BA016095622364BB0895413061
S113016069F421B381E090E0AC0102C0440F551F53
S11301706A95E2F7BA01622B61BB089521B381E06D
S113018090E0AC0102C0440F551F6A95E2F7BA0132
S11301906095622361BB0895823451F1833420F465
S11301A0813409F07BC007C0833409F43EC0843431
S11301B009F074C057C0413069F42BB381E090E07A
S11301C0AC0102C0440F551F6A95E2F7BA01622BD5
S11301D06BBB08952BB381E090E0AC0102C0440FE7
S11301E0551F6A95E2F7BA01609562236BBB0895C7
S11301F0413069F428B381E090E0AC0102C0440FBF
S1130200551F6A95E2F7BA01622B68BB089528B3BB
S113021081E090E0AC0102C0440F551F6A95E2F7FB
S1130220BA016095622368BB0895413069F425B32F
S113023081E090E0AC0102C0440F551F6A95E2F7DB
S1130240BA01622B65BB089525B381E090E0AC014F
S113025002C0440F551F6A95E2F7BA016095622304
S113026065BB0895413069F422B381E090E0AC01AC
S113027002C0440F551F6A95E2F7BA01622B62BBB4
S1130280089522B381E090E0AC0102C0440F551FF1
S11302906A95E2F7BA016095622362BB08958234DD
S11302A0F1F0833420F4813409F04FC006C0833464
S11302B041F1843409F049C036C029B381E090E0AB
S11302C0062E02C0880F991F0A94E2F730E08223B9
S11302D0932302C0959587956A95E2F7089526B30E
S11302E081E090E0062E02C0880F991F0A94E2F77D
S11302F030E08223932302C0959587956A95E2F7AF
S1130300089523B381E090E0062E02C0880F991F60
S11303100A94E2F730E08223932302C095958795EF
S11303206A95E2F7089520B381E090E0062E02C0BA
S1130330880F991F0A94E2F730E08223932302C0C6
S1130340959587956A95E2F7089580E0089582343B
S1130350B9F0833418F48134C9F505C08334E9F065
S11303608434A1F527C02BB381E090E0AC0102C036
S1130370440F551F6A95E2F7BA0162276BBB0895D3
S113038028B381E090E0AC0102C0440F551F6A9588
S1130390E2F7BA01622768BB089525B381E090E0D3
S11303A0AC0102C0440F551F6A95E2F7BA016227F7
S11303B065BB089522B381E090E0AC0102C0440F14
S11303C0551F6A95E2F7BA01622762BB0895823429
S11303D061F0833418F4813469F405C0833439F04E
S11303E0843441F406C06ABB089567BB089564BBB6
S11303F0089561BB0895823461F0833418F4813424
S113040069F405C0833439F0843441F406C06BBB0D
S1130410089568BB089565BB089562BB089582344E
S113042061F0833418F4813471F405C0833439F0F5
S1130430843449F406C089B3089586B3089583B318
S1130440089580B3089580E00895823451F183348F
S113045020F4813409F07BC007C0833409F43EC022
S1130460843409F074C057C0413069F42BB381E07F
S113047090E0AC0102C0440F551F6A95E2F7BA013F
S1130480622B6BBB08952BB381E090E0AC0102C0FA
S1130490440F551F6A95E2F7BA01609562236BBB5E
S11304A00895413069F428B381E090E0AC0102C0C2
S11304B0440F551F6A95E2F7BA01622B68BB089591
S11304C028B381E090E0AC0102C0440F551F6A9547
S11304D0E2F7BA016095622368BB0895413069F47C
S11304E025B381E090E0AC0102C0440F551F6A952A
S11304F0E2F7BA01622B65BB089525B381E090E071
S1130500AC0102C0440F551F6A95E2F7BA01609529
S1130510622365BB0895413069F422B381E090E021
S1130520AC0102C0440F551F6A95E2F7BA01622B71
S113053062BB089522B381E090E0AC0102C0440F95
S1130540551F6A95E2F7BA016095622362BB08956C
S11305506F70823481F0833418F48134F1F405C06F
S1130560833479F08434C9F412C08BB3807F8BBB9D
S11305708BB3862B8BBB88B3807F88BB88B3862BD9
S113058088BB85B3807F85BB85B3862B85BB82B34F
S1130590807F82BB82B3682B62BB08956295607FC3
S11305A0823481F0833418F48134F1F405C0833447
S11305B079F08434C9F412C08BB38F708BBB8BB3C6
S11305C0862B8BBB88B38F7088BB88B3862B88BB84
S11305D085B38F7085BB85B3862B85BB82B38F7043
S11305E082BB82B3682B62BB089582E460E041E081
S11305F00E94CC008FE99FE00197F1F700C0000052
S113060082E460E040E00E94CC008FE99FE0019723
S1130610F1F700C000000895682F81E40E94FB01F7
S113062082E461E040E00E94CC000E94F50208955B
S11306308FEF91EEA4E081509040A040E1F700C01C
S1130640000081E460E041E00E94490081E461E04F
S113065041E00E94490081E462E041E00E944900D7
S113066081E463E041E00E94490081E464E041E008
S11306700E94490081E465E041E00E94490081E470
S113068066E041E00E94490081E467E041E00E94A5
S1130690490082E460E041E00E94490082E462E0B3
S11306A041E00E94490082E461E041E00E94490087
S11306B082E462E040E00E94CC0088E30E940C03E4
S11306C0AFECB7E01197F1F700C000008EE00E9494
S11306D00C038FEC97E00197F1F700C0000081E074
S11306E00E940C03AFE1BEE41197F1F700C00000D3
S11306F086E00E940C038FEC97E00197F1F700C0AD
S113070000000895682F81E40E94FB0182E461E007
S113071041E00E94CC000E94F5020895CF93DF933C
S1130720EC018881882331F021960E94820389910B
S11307308823D9F7DF91CF91089581E00E940C03BB
S11307408FE19EE40197F1F700C000000895282F7F
S11307502150223070F4662371F0613170F48130DD
S113076019F4962F91580AC0823041F4962F91546F
S113077005C090E803C090E801C090E8892F0E946A
S11307800C038FEC97E00197F1F700C00000089587
S11307900E94180380E690E00E948E0380E40E9489
S11307A00C0380E00E94820380E00E94820384E0C4
S11307B00E9482038AE00E94820385E10E948203F0
S11307C08FEF0E94820380E00E94820380E00E94F7
S11307D0820380E00E94820380E00E94820380E022
S11307E00E94820380E00E9482038FEF0E948203B2
S11307F080E00E94820380E00E94820380E00E94E5
S1130800820384E00E94820384E00E94820384E0E5
S11308100E94820384E00E94820384E00E94820397
S113082084E00E94820380E00E94820380E00E94B0
S1130830820380E00E94820382E00E94820385E0BA
S11308400E94820389E00E9482038FEF0E94820348
S113085084E00E94820380E00E94820380E00E9480
S1130860820380E00E94820382E00E94820381E08E
S11308700E94820381E00E94820382E00E9482033C
S113088084E00E94820388E00E94820380E10E9447
S1130890820382E060E10E94A70380E00E94820359
S11308A082E06FE00E94A70381E00E94820382E05D
S11308B06EE00E94A70382E00E94820382E06DE062
S11308C00E94A70383E00E94820382E06CE00E94FE
S11308D0A70384E00E94820382E06BE00E94A703E6
S10908E0FFCFF894FFCFE6
S11108E668616A6572206D6F68616D656400FB
S9030000FC
